{
  "contractName": "Org",
  "abi": [
    {
      "inputs": [
        {
          "internalType": "string",
          "name": "name",
          "type": "string"
        },
        {
          "internalType": "string",
          "name": "addr",
          "type": "string"
        },
        {
          "internalType": "string",
          "name": "email",
          "type": "string"
        },
        {
          "internalType": "string",
          "name": "con",
          "type": "string"
        },
        {
          "internalType": "string",
          "name": "typ",
          "type": "string"
        }
      ],
      "stateMutability": "nonpayable",
      "type": "constructor"
    },
    {
      "anonymous": false,
      "inputs": [
        {
          "components": [
            {
              "internalType": "string",
              "name": "orderId",
              "type": "string"
            },
            {
              "internalType": "string",
              "name": "buyername",
              "type": "string"
            },
            {
              "internalType": "string",
              "name": "contact",
              "type": "string"
            },
            {
              "internalType": "uint256",
              "name": "order_date",
              "type": "uint256"
            },
            {
              "internalType": "string",
              "name": "product",
              "type": "string"
            },
            {
              "internalType": "uint256",
              "name": "quantity",
              "type": "uint256"
            },
            {
              "internalType": "uint256",
              "name": "price",
              "type": "uint256"
            }
          ],
          "indexed": false,
          "internalType": "struct Org.Order",
          "name": "_order",
          "type": "tuple"
        }
      ],
      "name": "AddOrders",
      "type": "event"
    },
    {
      "anonymous": false,
      "inputs": [
        {
          "components": [
            {
              "internalType": "address",
              "name": "id",
              "type": "address"
            },
            {
              "internalType": "string",
              "name": "name",
              "type": "string"
            },
            {
              "internalType": "string",
              "name": "aadharno",
              "type": "string"
            },
            {
              "internalType": "string",
              "name": "addr",
              "type": "string"
            },
            {
              "internalType": "string",
              "name": "con",
              "type": "string"
            },
            {
              "internalType": "string",
              "name": "typ",
              "type": "string"
            },
            {
              "internalType": "string",
              "name": "landdetails",
              "type": "string"
            },
            {
              "internalType": "string",
              "name": "fertilizersused",
              "type": "string"
            },
            {
              "internalType": "string",
              "name": "noofcrops",
              "type": "string"
            },
            {
              "internalType": "string",
              "name": "role",
              "type": "string"
            },
            {
              "internalType": "bool",
              "name": "verified",
              "type": "bool"
            },
            {
              "internalType": "uint256",
              "name": "orderCount",
              "type": "uint256"
            }
          ],
          "indexed": false,
          "internalType": "struct Org.BuyerFarmer",
          "name": "_buyerfarmervalue",
          "type": "tuple"
        }
      ],
      "name": "RegisterBuyerFarmer",
      "type": "event"
    },
    {
      "anonymous": false,
      "inputs": [
        {
          "components": [
            {
              "internalType": "address",
              "name": "id",
              "type": "address"
            },
            {
              "internalType": "string",
              "name": "name",
              "type": "string"
            },
            {
              "internalType": "string",
              "name": "email",
              "type": "string"
            },
            {
              "internalType": "string",
              "name": "con",
              "type": "string"
            },
            {
              "internalType": "string",
              "name": "gstno",
              "type": "string"
            },
            {
              "internalType": "string",
              "name": "addr",
              "type": "string"
            },
            {
              "internalType": "string",
              "name": "typ",
              "type": "string"
            },
            {
              "internalType": "string",
              "name": "role",
              "type": "string"
            },
            {
              "internalType": "bool",
              "name": "verified",
              "type": "bool"
            }
          ],
          "indexed": false,
          "internalType": "struct Org.Seller",
          "name": "_sellervalue",
          "type": "tuple"
        }
      ],
      "name": "RegisterSeller",
      "type": "event"
    },
    {
      "anonymous": false,
      "inputs": [
        {
          "indexed": false,
          "internalType": "string",
          "name": "_message",
          "type": "string"
        }
      ],
      "name": "VerifyBuyers",
      "type": "event"
    },
    {
      "anonymous": false,
      "inputs": [
        {
          "indexed": false,
          "internalType": "string",
          "name": "_message",
          "type": "string"
        }
      ],
      "name": "VerifySellers",
      "type": "event"
    },
    {
      "inputs": [
        {
          "internalType": "uint256",
          "name": "",
          "type": "uint256"
        }
      ],
      "name": "orders",
      "outputs": [
        {
          "internalType": "string",
          "name": "orderId",
          "type": "string"
        },
        {
          "internalType": "string",
          "name": "buyername",
          "type": "string"
        },
        {
          "internalType": "string",
          "name": "contact",
          "type": "string"
        },
        {
          "internalType": "uint256",
          "name": "order_date",
          "type": "uint256"
        },
        {
          "internalType": "string",
          "name": "product",
          "type": "string"
        },
        {
          "internalType": "uint256",
          "name": "quantity",
          "type": "uint256"
        },
        {
          "internalType": "uint256",
          "name": "price",
          "type": "uint256"
        }
      ],
      "stateMutability": "view",
      "type": "function"
    },
    {
      "inputs": [
        {
          "internalType": "string",
          "name": "name",
          "type": "string"
        },
        {
          "internalType": "string",
          "name": "aadharno",
          "type": "string"
        },
        {
          "internalType": "string",
          "name": "addr",
          "type": "string"
        },
        {
          "internalType": "string",
          "name": "con",
          "type": "string"
        },
        {
          "internalType": "string",
          "name": "typ",
          "type": "string"
        },
        {
          "internalType": "string",
          "name": "landdetails",
          "type": "string"
        },
        {
          "internalType": "string",
          "name": "fertilizersused",
          "type": "string"
        },
        {
          "internalType": "string",
          "name": "noofcrops",
          "type": "string"
        }
      ],
      "name": "registerFarmer",
      "outputs": [],
      "stateMutability": "nonpayable",
      "type": "function"
    },
    {
      "inputs": [
        {
          "internalType": "string",
          "name": "name",
          "type": "string"
        },
        {
          "internalType": "string",
          "name": "email",
          "type": "string"
        },
        {
          "internalType": "string",
          "name": "con",
          "type": "string"
        },
        {
          "internalType": "string",
          "name": "gstno",
          "type": "string"
        },
        {
          "internalType": "string",
          "name": "addr",
          "type": "string"
        },
        {
          "internalType": "string",
          "name": "typ",
          "type": "string"
        }
      ],
      "name": "registerSeller",
      "outputs": [],
      "stateMutability": "nonpayable",
      "type": "function"
    },
    {
      "inputs": [
        {
          "internalType": "string",
          "name": "orderId",
          "type": "string"
        },
        {
          "internalType": "string",
          "name": "buyername",
          "type": "string"
        },
        {
          "internalType": "string",
          "name": "contact",
          "type": "string"
        },
        {
          "internalType": "uint256",
          "name": "order_date",
          "type": "uint256"
        },
        {
          "internalType": "string",
          "name": "product",
          "type": "string"
        },
        {
          "internalType": "uint256",
          "name": "quantity",
          "type": "uint256"
        },
        {
          "internalType": "uint256",
          "name": "price",
          "type": "uint256"
        }
      ],
      "name": "addOrders",
      "outputs": [],
      "stateMutability": "nonpayable",
      "type": "function"
    },
    {
      "inputs": [],
      "name": "getOrders",
      "outputs": [
        {
          "components": [
            {
              "internalType": "string",
              "name": "orderId",
              "type": "string"
            },
            {
              "internalType": "string",
              "name": "buyername",
              "type": "string"
            },
            {
              "internalType": "string",
              "name": "contact",
              "type": "string"
            },
            {
              "internalType": "uint256",
              "name": "order_date",
              "type": "uint256"
            },
            {
              "internalType": "string",
              "name": "product",
              "type": "string"
            },
            {
              "internalType": "uint256",
              "name": "quantity",
              "type": "uint256"
            },
            {
              "internalType": "uint256",
              "name": "price",
              "type": "uint256"
            }
          ],
          "internalType": "struct Org.Order[]",
          "name": "",
          "type": "tuple[]"
        }
      ],
      "stateMutability": "view",
      "type": "function"
    },
    {
      "inputs": [],
      "name": "getAdmin",
      "outputs": [
        {
          "components": [
            {
              "internalType": "address",
              "name": "id",
              "type": "address"
            },
            {
              "internalType": "string",
              "name": "name",
              "type": "string"
            },
            {
              "internalType": "string",
              "name": "addr",
              "type": "string"
            },
            {
              "internalType": "string",
              "name": "email",
              "type": "string"
            },
            {
              "internalType": "string",
              "name": "con",
              "type": "string"
            },
            {
              "internalType": "string",
              "name": "typ",
              "type": "string"
            },
            {
              "internalType": "string",
              "name": "role",
              "type": "string"
            },
            {
              "internalType": "bool",
              "name": "verified",
              "type": "bool"
            }
          ],
          "internalType": "struct Org.Admin",
          "name": "",
          "type": "tuple"
        }
      ],
      "stateMutability": "view",
      "type": "function"
    },
    {
      "inputs": [],
      "name": "getBuyer",
      "outputs": [
        {
          "components": [
            {
              "internalType": "address",
              "name": "id",
              "type": "address"
            },
            {
              "internalType": "string",
              "name": "name",
              "type": "string"
            },
            {
              "internalType": "string",
              "name": "aadharno",
              "type": "string"
            },
            {
              "internalType": "string",
              "name": "addr",
              "type": "string"
            },
            {
              "internalType": "string",
              "name": "con",
              "type": "string"
            },
            {
              "internalType": "string",
              "name": "typ",
              "type": "string"
            },
            {
              "internalType": "string",
              "name": "landdetails",
              "type": "string"
            },
            {
              "internalType": "string",
              "name": "fertilizersused",
              "type": "string"
            },
            {
              "internalType": "string",
              "name": "noofcrops",
              "type": "string"
            },
            {
              "internalType": "string",
              "name": "role",
              "type": "string"
            },
            {
              "internalType": "bool",
              "name": "verified",
              "type": "bool"
            },
            {
              "internalType": "uint256",
              "name": "orderCount",
              "type": "uint256"
            }
          ],
          "internalType": "struct Org.BuyerFarmer",
          "name": "",
          "type": "tuple"
        }
      ],
      "stateMutability": "view",
      "type": "function"
    },
    {
      "inputs": [],
      "name": "getSeller",
      "outputs": [
        {
          "components": [
            {
              "internalType": "address",
              "name": "id",
              "type": "address"
            },
            {
              "internalType": "string",
              "name": "name",
              "type": "string"
            },
            {
              "internalType": "string",
              "name": "email",
              "type": "string"
            },
            {
              "internalType": "string",
              "name": "con",
              "type": "string"
            },
            {
              "internalType": "string",
              "name": "gstno",
              "type": "string"
            },
            {
              "internalType": "string",
              "name": "addr",
              "type": "string"
            },
            {
              "internalType": "string",
              "name": "typ",
              "type": "string"
            },
            {
              "internalType": "string",
              "name": "role",
              "type": "string"
            },
            {
              "internalType": "bool",
              "name": "verified",
              "type": "bool"
            }
          ],
          "internalType": "struct Org.Seller",
          "name": "",
          "type": "tuple"
        }
      ],
      "stateMutability": "view",
      "type": "function"
    },
    {
      "inputs": [],
      "name": "getUnverifiedBuyers",
      "outputs": [
        {
          "components": [
            {
              "internalType": "address",
              "name": "id",
              "type": "address"
            },
            {
              "internalType": "string",
              "name": "name",
              "type": "string"
            },
            {
              "internalType": "string",
              "name": "aadharno",
              "type": "string"
            },
            {
              "internalType": "string",
              "name": "addr",
              "type": "string"
            },
            {
              "internalType": "string",
              "name": "con",
              "type": "string"
            },
            {
              "internalType": "string",
              "name": "typ",
              "type": "string"
            },
            {
              "internalType": "string",
              "name": "landdetails",
              "type": "string"
            },
            {
              "internalType": "string",
              "name": "fertilizersused",
              "type": "string"
            },
            {
              "internalType": "string",
              "name": "noofcrops",
              "type": "string"
            },
            {
              "internalType": "string",
              "name": "role",
              "type": "string"
            },
            {
              "internalType": "bool",
              "name": "verified",
              "type": "bool"
            },
            {
              "internalType": "uint256",
              "name": "orderCount",
              "type": "uint256"
            }
          ],
          "internalType": "struct Org.BuyerFarmer[]",
          "name": "",
          "type": "tuple[]"
        }
      ],
      "stateMutability": "view",
      "type": "function"
    },
    {
      "inputs": [],
      "name": "getUnverifiedSellers",
      "outputs": [
        {
          "components": [
            {
              "internalType": "address",
              "name": "id",
              "type": "address"
            },
            {
              "internalType": "string",
              "name": "name",
              "type": "string"
            },
            {
              "internalType": "string",
              "name": "email",
              "type": "string"
            },
            {
              "internalType": "string",
              "name": "con",
              "type": "string"
            },
            {
              "internalType": "string",
              "name": "gstno",
              "type": "string"
            },
            {
              "internalType": "string",
              "name": "addr",
              "type": "string"
            },
            {
              "internalType": "string",
              "name": "typ",
              "type": "string"
            },
            {
              "internalType": "string",
              "name": "role",
              "type": "string"
            },
            {
              "internalType": "bool",
              "name": "verified",
              "type": "bool"
            }
          ],
          "internalType": "struct Org.Seller[]",
          "name": "",
          "type": "tuple[]"
        }
      ],
      "stateMutability": "view",
      "type": "function"
    },
    {
      "inputs": [
        {
          "internalType": "address",
          "name": "_address",
          "type": "address"
        }
      ],
      "name": "verifyBuyers",
      "outputs": [],
      "stateMutability": "nonpayable",
      "type": "function"
    },
    {
      "inputs": [],
      "name": "getVerifiedBuyers",
      "outputs": [
        {
          "components": [
            {
              "internalType": "address",
              "name": "id",
              "type": "address"
            },
            {
              "internalType": "string",
              "name": "name",
              "type": "string"
            },
            {
              "internalType": "string",
              "name": "aadharno",
              "type": "string"
            },
            {
              "internalType": "string",
              "name": "addr",
              "type": "string"
            },
            {
              "internalType": "string",
              "name": "con",
              "type": "string"
            },
            {
              "internalType": "string",
              "name": "typ",
              "type": "string"
            },
            {
              "internalType": "string",
              "name": "landdetails",
              "type": "string"
            },
            {
              "internalType": "string",
              "name": "fertilizersused",
              "type": "string"
            },
            {
              "internalType": "string",
              "name": "noofcrops",
              "type": "string"
            },
            {
              "internalType": "string",
              "name": "role",
              "type": "string"
            },
            {
              "internalType": "bool",
              "name": "verified",
              "type": "bool"
            },
            {
              "internalType": "uint256",
              "name": "orderCount",
              "type": "uint256"
            }
          ],
          "internalType": "struct Org.BuyerFarmer[]",
          "name": "",
          "type": "tuple[]"
        }
      ],
      "stateMutability": "view",
      "type": "function"
    },
    {
      "inputs": [
        {
          "internalType": "address",
          "name": "_address",
          "type": "address"
        }
      ],
      "name": "verifySellers",
      "outputs": [],
      "stateMutability": "nonpayable",
      "type": "function"
    },
    {
      "inputs": [],
      "name": "getVerifiedSellers",
      "outputs": [
        {
          "components": [
            {
              "internalType": "address",
              "name": "id",
              "type": "address"
            },
            {
              "internalType": "string",
              "name": "name",
              "type": "string"
            },
            {
              "internalType": "string",
              "name": "email",
              "type": "string"
            },
            {
              "internalType": "string",
              "name": "con",
              "type": "string"
            },
            {
              "internalType": "string",
              "name": "gstno",
              "type": "string"
            },
            {
              "internalType": "string",
              "name": "addr",
              "type": "string"
            },
            {
              "internalType": "string",
              "name": "typ",
              "type": "string"
            },
            {
              "internalType": "string",
              "name": "role",
              "type": "string"
            },
            {
              "internalType": "bool",
              "name": "verified",
              "type": "bool"
            }
          ],
          "internalType": "struct Org.Seller[]",
          "name": "",
          "type": "tuple[]"
        }
      ],
      "stateMutability": "view",
      "type": "function"
    }
  ],
  "bytecode": "0x608060405260056001553480156200001657600080fd5b50604051620074343803806200743483398181016040528101906200003c919062000526565b336000806101000a81548173ffffffffffffffffffffffffffffffffffffffff021916908373ffffffffffffffffffffffffffffffffffffffff160217905550600060405180610100016040528060008054906101000a900473ffffffffffffffffffffffffffffffffffffffff1673ffffffffffffffffffffffffffffffffffffffff1681526020018781526020018681526020018581526020018481526020018381526020016040518060400160405280600581526020017f61646d696e000000000000000000000000000000000000000000000000000000815250815260200160011515815250905080600260010160008060009054906101000a900473ffffffffffffffffffffffffffffffffffffffff1673ffffffffffffffffffffffffffffffffffffffff1673ffffffffffffffffffffffffffffffffffffffff16815260200190815260200160002060008201518160000160006101000a81548173ffffffffffffffffffffffffffffffffffffffff021916908373ffffffffffffffffffffffffffffffffffffffff1602179055506020820151816001019080519060200190620001f1929190620002d9565b50604082015181600201908051906020019062000210929190620002d9565b5060608201518160030190805190602001906200022f929190620002d9565b5060808201518160040190805190602001906200024e929190620002d9565b5060a08201518160050190805190602001906200026d929190620002d9565b5060c08201518160060190805190602001906200028c929190620002d9565b5060e08201518160070160006101000a81548160ff02191690831515021790555090505060016002800160006101000a81548160ff021916908315150217905550505050505050620006ae565b828054620002e79062000678565b90600052602060002090601f0160209004810192826200030b576000855562000357565b82601f106200032657805160ff191683800117855562000357565b8280016001018555821562000357579182015b828111156200035657825182559160200191906001019062000339565b5b5090506200036691906200036a565b5090565b5b80821115620003855760008160009055506001016200036b565b5090565b6000604051905090565b600080fd5b600080fd5b600080fd5b600080fd5b6000601f19601f8301169050919050565b7f4e487b7100000000000000000000000000000000000000000000000000000000600052604160045260246000fd5b620003f282620003a7565b810181811067ffffffffffffffff82111715620004145762000413620003b8565b5b80604052505050565b60006200042962000389565b9050620004378282620003e7565b919050565b600067ffffffffffffffff8211156200045a5762000459620003b8565b5b6200046582620003a7565b9050602081019050919050565b60005b838110156200049257808201518184015260208101905062000475565b83811115620004a2576000848401525b50505050565b6000620004bf620004b9846200043c565b6200041d565b905082815260208101848484011115620004de57620004dd620003a2565b5b620004eb84828562000472565b509392505050565b600082601f8301126200050b576200050a6200039d565b5b81516200051d848260208601620004a8565b91505092915050565b600080600080600060a0868803121562000545576200054462000393565b5b600086015167ffffffffffffffff81111562000566576200056562000398565b5b6200057488828901620004f3565b955050602086015167ffffffffffffffff81111562000598576200059762000398565b5b620005a688828901620004f3565b945050604086015167ffffffffffffffff811115620005ca57620005c962000398565b5b620005d888828901620004f3565b935050606086015167ffffffffffffffff811115620005fc57620005fb62000398565b5b6200060a88828901620004f3565b925050608086015167ffffffffffffffff8111156200062e576200062d62000398565b5b6200063c88828901620004f3565b9150509295509295909350565b7f4e487b7100000000000000000000000000000000000000000000000000000000600052602260045260246000fd5b600060028204905060018216806200069157607f821691505b60208210811415620006a857620006a762000649565b5b50919050565b616d7680620006be6000396000f3fe608060405234801561001057600080fd5b50600436106100ea5760003560e01c80636e9960c31161008c578063dbd0e1b611610066578063dbd0e1b61461022b578063f518709514610249578063f75fcb9f14610267578063fc2e514414610285576100ea565b80636e9960c3146101bb57806371f64abd146101d9578063a85c38ef146101f5576100ea565b80633fd99ff7116100c85780633fd99ff71461014757806352765a9e146101635780635c22009c14610181578063603daf9a1461019d576100ea565b80631055a241146100ef57806321f20c191461010d5780632e2dc43e14610129575b600080fd5b6100f76102a1565b60405161010491906159c1565b60405180910390f35b61012760048036038101906101229190615a23565b611007565b005b610131611131565b60405161013e9190615bc3565b60405180910390f35b610161600480360381019061015c9190615d46565b6113f6565b005b61016b611747565b60405161017891906159c1565b60405180910390f35b61019b60048036038101906101969190615e58565b6124af565b005b6101a56128cb565b6040516101b2919061612a565b60405180910390f35b6101c3612ec3565b6040516101d0919061621f565b60405180910390f35b6101f360048036038101906101ee9190615a23565b6132fb565b005b61020f600480360381019061020a9190616241565b613425565b60405161022297969594939291906162c7565b60405180910390f35b610233613697565b6040516102409190616441565b60405180910390f35b610251613b61565b60405161025e9190616614565b60405180910390f35b61026f61466b565b60405161027c9190616614565b60405180910390f35b61029f600480360381019061029a9190616636565b615177565b005b60606000805b60056000018054905081101561091457600060056001016000600560000184815481106102d7576102d661676b565b5b9060005260206000200160009054906101000a900473ffffffffffffffffffffffffffffffffffffffff1673ffffffffffffffffffffffffffffffffffffffff1673ffffffffffffffffffffffffffffffffffffffff168152602001908152602001600020604051806101800160405290816000820160009054906101000a900473ffffffffffffffffffffffffffffffffffffffff1673ffffffffffffffffffffffffffffffffffffffff1673ffffffffffffffffffffffffffffffffffffffff1681526020016001820180546103ae906167c9565b80601f01602080910402602001604051908101604052809291908181526020018280546103da906167c9565b80156104275780601f106103fc57610100808354040283529160200191610427565b820191906000526020600020905b81548152906001019060200180831161040a57829003601f168201915b50505050508152602001600282018054610440906167c9565b80601f016020809104026020016040519081016040528092919081815260200182805461046c906167c9565b80156104b95780601f1061048e576101008083540402835291602001916104b9565b820191906000526020600020905b81548152906001019060200180831161049c57829003601f168201915b505050505081526020016003820180546104d2906167c9565b80601f01602080910402602001604051908101604052809291908181526020018280546104fe906167c9565b801561054b5780601f106105205761010080835404028352916020019161054b565b820191906000526020600020905b81548152906001019060200180831161052e57829003601f168201915b50505050508152602001600482018054610564906167c9565b80601f0160208091040260200160405190810160405280929190818152602001828054610590906167c9565b80156105dd5780601f106105b2576101008083540402835291602001916105dd565b820191906000526020600020905b8154815290600101906020018083116105c057829003601f168201915b505050505081526020016005820180546105f6906167c9565b80601f0160208091040260200160405190810160405280929190818152602001828054610622906167c9565b801561066f5780601f106106445761010080835404028352916020019161066f565b820191906000526020600020905b81548152906001019060200180831161065257829003601f168201915b50505050508152602001600682018054610688906167c9565b80601f01602080910402602001604051908101604052809291908181526020018280546106b4906167c9565b80156107015780601f106106d657610100808354040283529160200191610701565b820191906000526020600020905b8154815290600101906020018083116106e457829003601f168201915b5050505050815260200160078201805461071a906167c9565b80601f0160208091040260200160405190810160405280929190818152602001828054610746906167c9565b80156107935780601f1061076857610100808354040283529160200191610793565b820191906000526020600020905b81548152906001019060200180831161077657829003601f168201915b505050505081526020016008820180546107ac906167c9565b80601f01602080910402602001604051908101604052809291908181526020018280546107d8906167c9565b80156108255780601f106107fa57610100808354040283529160200191610825565b820191906000526020600020905b81548152906001019060200180831161080857829003601f168201915b5050505050815260200160098201805461083e906167c9565b80601f016020809104026020016040519081016040528092919081815260200182805461086a906167c9565b80156108b75780601f1061088c576101008083540402835291602001916108b7565b820191906000526020600020905b81548152906001019060200180831161089a57829003601f168201915b50505050508152602001600a820160009054906101000a900460ff16151515158152602001600b8201548152505090508061014001516109005782806108fc9061682a565b9350505b50808061090c9061682a565b9150506102a7565b5060008167ffffffffffffffff81111561093157610930615bef565b5b60405190808252806020026020018201604052801561096a57816020015b6109576154d8565b81526020019060019003908161094f5790505b5090506000805b600560000180549050811015610ffd57600060056001016000600560000184815481106109a1576109a061676b565b5b9060005260206000200160009054906101000a900473ffffffffffffffffffffffffffffffffffffffff1673ffffffffffffffffffffffffffffffffffffffff1673ffffffffffffffffffffffffffffffffffffffff168152602001908152602001600020604051806101800160405290816000820160009054906101000a900473ffffffffffffffffffffffffffffffffffffffff1673ffffffffffffffffffffffffffffffffffffffff1673ffffffffffffffffffffffffffffffffffffffff168152602001600182018054610a78906167c9565b80601f0160208091040260200160405190810160405280929190818152602001828054610aa4906167c9565b8015610af15780601f10610ac657610100808354040283529160200191610af1565b820191906000526020600020905b815481529060010190602001808311610ad457829003601f168201915b50505050508152602001600282018054610b0a906167c9565b80601f0160208091040260200160405190810160405280929190818152602001828054610b36906167c9565b8015610b835780601f10610b5857610100808354040283529160200191610b83565b820191906000526020600020905b815481529060010190602001808311610b6657829003601f168201915b50505050508152602001600382018054610b9c906167c9565b80601f0160208091040260200160405190810160405280929190818152602001828054610bc8906167c9565b8015610c155780601f10610bea57610100808354040283529160200191610c15565b820191906000526020600020905b815481529060010190602001808311610bf857829003601f168201915b50505050508152602001600482018054610c2e906167c9565b80601f0160208091040260200160405190810160405280929190818152602001828054610c5a906167c9565b8015610ca75780601f10610c7c57610100808354040283529160200191610ca7565b820191906000526020600020905b815481529060010190602001808311610c8a57829003601f168201915b50505050508152602001600582018054610cc0906167c9565b80601f0160208091040260200160405190810160405280929190818152602001828054610cec906167c9565b8015610d395780601f10610d0e57610100808354040283529160200191610d39565b820191906000526020600020905b815481529060010190602001808311610d1c57829003601f168201915b50505050508152602001600682018054610d52906167c9565b80601f0160208091040260200160405190810160405280929190818152602001828054610d7e906167c9565b8015610dcb5780601f10610da057610100808354040283529160200191610dcb565b820191906000526020600020905b815481529060010190602001808311610dae57829003601f168201915b50505050508152602001600782018054610de4906167c9565b80601f0160208091040260200160405190810160405280929190818152602001828054610e10906167c9565b8015610e5d5780601f10610e3257610100808354040283529160200191610e5d565b820191906000526020600020905b815481529060010190602001808311610e4057829003601f168201915b50505050508152602001600882018054610e76906167c9565b80601f0160208091040260200160405190810160405280929190818152602001828054610ea2906167c9565b8015610eef5780601f10610ec457610100808354040283529160200191610eef565b820191906000526020600020905b815481529060010190602001808311610ed257829003601f168201915b50505050508152602001600982018054610f08906167c9565b80601f0160208091040260200160405190810160405280929190818152602001828054610f34906167c9565b8015610f815780601f10610f5657610100808354040283529160200191610f81565b820191906000526020600020905b815481529060010190602001808311610f6457829003601f168201915b50505050508152602001600a820160009054906101000a900460ff16151515158152602001600b820154815250509050806101400151610fe95780848481518110610fcf57610fce61676b565b5b60200260200101819052508280610fe59061682a565b9350505b508080610ff59061682a565b915050610971565b5081935050505090565b60008054906101000a900473ffffffffffffffffffffffffffffffffffffffff1673ffffffffffffffffffffffffffffffffffffffff163373ffffffffffffffffffffffffffffffffffffffff1614611095576040517f08c379a000000000000000000000000000000000000000000000000000000000815260040161108c906168e5565b60405180910390fd5b6000600b60010160008373ffffffffffffffffffffffffffffffffffffffff1673ffffffffffffffffffffffffffffffffffffffff168152602001908152602001600020905060018160080160006101000a81548160ff0219169083151502179055507fa379dad39af58b0f35f6930262c5bdf0cde3cb8aabe122a33a582648d6dbbb7a60405161112590616951565b60405180910390a15050565b6060600f805480602002602001604051908101604052809291908181526020016000905b828210156113ed57838290600052602060002090600702016040518060e0016040529081600082018054611188906167c9565b80601f01602080910402602001604051908101604052809291908181526020018280546111b4906167c9565b80156112015780601f106111d657610100808354040283529160200191611201565b820191906000526020600020905b8154815290600101906020018083116111e457829003601f168201915b5050505050815260200160018201805461121a906167c9565b80601f0160208091040260200160405190810160405280929190818152602001828054611246906167c9565b80156112935780601f1061126857610100808354040283529160200191611293565b820191906000526020600020905b81548152906001019060200180831161127657829003601f168201915b505050505081526020016002820180546112ac906167c9565b80601f01602080910402602001604051908101604052809291908181526020018280546112d8906167c9565b80156113255780601f106112fa57610100808354040283529160200191611325565b820191906000526020600020905b81548152906001019060200180831161130857829003601f168201915b5050505050815260200160038201548152602001600482018054611348906167c9565b80601f0160208091040260200160405190810160405280929190818152602001828054611374906167c9565b80156113c15780601f10611396576101008083540402835291602001916113c1565b820191906000526020600020905b8154815290600101906020018083116113a457829003601f168201915b505050505081526020016005820154815260200160068201548152505081526020019060010190611155565b50505050905090565b600b60030160003373ffffffffffffffffffffffffffffffffffffffff1673ffffffffffffffffffffffffffffffffffffffff16815260200190815260200160002060009054906101000a900460ff16611485576040517f08c379a000000000000000000000000000000000000000000000000000000000815260040161147c906169e3565b60405180910390fd5b6001546005600401600060058001886040516114a19190616a3f565b908152602001604051809103902060009054906101000a900473ffffffffffffffffffffffffffffffffffffffff1673ffffffffffffffffffffffffffffffffffffffff1673ffffffffffffffffffffffffffffffffffffffff168152602001908152602001600020541061154b576040517f08c379a000000000000000000000000000000000000000000000000000000000815260040161154290616ac8565b60405180910390fd5b600f6040518060e0016040528089815260200188815260200187815260200186815260200185815260200184815260200183815250908060018154018082558091505060019003906000526020600020906007020160009091909190915060008201518160000190805190602001906115c5929190615551565b5060208201518160010190805190602001906115e2929190615551565b5060408201518160020190805190602001906115ff929190615551565b50606082015181600301556080820151816004019080519060200190611626929190615551565b5060a0820151816005015560c0820151816006015550506005600401600060058001876040516116569190616a3f565b908152602001604051809103902060009054906101000a900473ffffffffffffffffffffffffffffffffffffffff1673ffffffffffffffffffffffffffffffffffffffff1673ffffffffffffffffffffffffffffffffffffffff16815260200190815260200160002060008154809291906116d09061682a565b91905055507f765053a4a6d5337126dda78c310c6669befd7b89a74da48a29a7d319665281e1600f6001600f8054905061170a9190616ae8565b8154811061171b5761171a61676b565b5b90600052602060002090600702016040516117369190616cb2565b60405180910390a150505050505050565b60606000805b600560000180549050811015611dbb576000600560010160006005600001848154811061177d5761177c61676b565b5b9060005260206000200160009054906101000a900473ffffffffffffffffffffffffffffffffffffffff1673ffffffffffffffffffffffffffffffffffffffff1673ffffffffffffffffffffffffffffffffffffffff168152602001908152602001600020604051806101800160405290816000820160009054906101000a900473ffffffffffffffffffffffffffffffffffffffff1673ffffffffffffffffffffffffffffffffffffffff1673ffffffffffffffffffffffffffffffffffffffff168152602001600182018054611854906167c9565b80601f0160208091040260200160405190810160405280929190818152602001828054611880906167c9565b80156118cd5780601f106118a2576101008083540402835291602001916118cd565b820191906000526020600020905b8154815290600101906020018083116118b057829003601f168201915b505050505081526020016002820180546118e6906167c9565b80601f0160208091040260200160405190810160405280929190818152602001828054611912906167c9565b801561195f5780601f106119345761010080835404028352916020019161195f565b820191906000526020600020905b81548152906001019060200180831161194257829003601f168201915b50505050508152602001600382018054611978906167c9565b80601f01602080910402602001604051908101604052809291908181526020018280546119a4906167c9565b80156119f15780601f106119c6576101008083540402835291602001916119f1565b820191906000526020600020905b8154815290600101906020018083116119d457829003601f168201915b50505050508152602001600482018054611a0a906167c9565b80601f0160208091040260200160405190810160405280929190818152602001828054611a36906167c9565b8015611a835780601f10611a5857610100808354040283529160200191611a83565b820191906000526020600020905b815481529060010190602001808311611a6657829003601f168201915b50505050508152602001600582018054611a9c906167c9565b80601f0160208091040260200160405190810160405280929190818152602001828054611ac8906167c9565b8015611b155780601f10611aea57610100808354040283529160200191611b15565b820191906000526020600020905b815481529060010190602001808311611af857829003601f168201915b50505050508152602001600682018054611b2e906167c9565b80601f0160208091040260200160405190810160405280929190818152602001828054611b5a906167c9565b8015611ba75780601f10611b7c57610100808354040283529160200191611ba7565b820191906000526020600020905b815481529060010190602001808311611b8a57829003601f168201915b50505050508152602001600782018054611bc0906167c9565b80601f0160208091040260200160405190810160405280929190818152602001828054611bec906167c9565b8015611c395780601f10611c0e57610100808354040283529160200191611c39565b820191906000526020600020905b815481529060010190602001808311611c1c57829003601f168201915b50505050508152602001600882018054611c52906167c9565b80601f0160208091040260200160405190810160405280929190818152602001828054611c7e906167c9565b8015611ccb5780601f10611ca057610100808354040283529160200191611ccb565b820191906000526020600020905b815481529060010190602001808311611cae57829003601f168201915b50505050508152602001600982018054611ce4906167c9565b80601f0160208091040260200160405190810160405280929190818152602001828054611d10906167c9565b8015611d5d5780601f10611d3257610100808354040283529160200191611d5d565b820191906000526020600020905b815481529060010190602001808311611d4057829003601f168201915b50505050508152602001600a820160009054906101000a900460ff16151515158152602001600b82015481525050905080610140015115611da7578280611da39061682a565b9350505b508080611db39061682a565b91505061174d565b5060008167ffffffffffffffff811115611dd857611dd7615bef565b5b604051908082528060200260200182016040528015611e1157816020015b611dfe6154d8565b815260200190600190039081611df65790505b5090506000805b6005600001805490508110156124a55760006005600101600060056000018481548110611e4857611e4761676b565b5b9060005260206000200160009054906101000a900473ffffffffffffffffffffffffffffffffffffffff1673ffffffffffffffffffffffffffffffffffffffff1673ffffffffffffffffffffffffffffffffffffffff168152602001908152602001600020604051806101800160405290816000820160009054906101000a900473ffffffffffffffffffffffffffffffffffffffff1673ffffffffffffffffffffffffffffffffffffffff1673ffffffffffffffffffffffffffffffffffffffff168152602001600182018054611f1f906167c9565b80601f0160208091040260200160405190810160405280929190818152602001828054611f4b906167c9565b8015611f985780601f10611f6d57610100808354040283529160200191611f98565b820191906000526020600020905b815481529060010190602001808311611f7b57829003601f168201915b50505050508152602001600282018054611fb1906167c9565b80601f0160208091040260200160405190810160405280929190818152602001828054611fdd906167c9565b801561202a5780601f10611fff5761010080835404028352916020019161202a565b820191906000526020600020905b81548152906001019060200180831161200d57829003601f168201915b50505050508152602001600382018054612043906167c9565b80601f016020809104026020016040519081016040528092919081815260200182805461206f906167c9565b80156120bc5780601f10612091576101008083540402835291602001916120bc565b820191906000526020600020905b81548152906001019060200180831161209f57829003601f168201915b505050505081526020016004820180546120d5906167c9565b80601f0160208091040260200160405190810160405280929190818152602001828054612101906167c9565b801561214e5780601f106121235761010080835404028352916020019161214e565b820191906000526020600020905b81548152906001019060200180831161213157829003601f168201915b50505050508152602001600582018054612167906167c9565b80601f0160208091040260200160405190810160405280929190818152602001828054612193906167c9565b80156121e05780601f106121b5576101008083540402835291602001916121e0565b820191906000526020600020905b8154815290600101906020018083116121c357829003601f168201915b505050505081526020016006820180546121f9906167c9565b80601f0160208091040260200160405190810160405280929190818152602001828054612225906167c9565b80156122725780601f1061224757610100808354040283529160200191612272565b820191906000526020600020905b81548152906001019060200180831161225557829003601f168201915b5050505050815260200160078201805461228b906167c9565b80601f01602080910402602001604051908101604052809291908181526020018280546122b7906167c9565b80156123045780601f106122d957610100808354040283529160200191612304565b820191906000526020600020905b8154815290600101906020018083116122e757829003601f168201915b5050505050815260200160088201805461231d906167c9565b80601f0160208091040260200160405190810160405280929190818152602001828054612349906167c9565b80156123965780601f1061236b57610100808354040283529160200191612396565b820191906000526020600020905b81548152906001019060200180831161237957829003601f168201915b505050505081526020016009820180546123af906167c9565b80601f01602080910402602001604051908101604052809291908181526020018280546123db906167c9565b80156124285780601f106123fd57610100808354040283529160200191612428565b820191906000526020600020905b81548152906001019060200180831161240b57829003601f168201915b50505050508152602001600a820160009054906101000a900460ff16151515158152602001600b8201548152505090508061014001511561249157808484815181106124775761247661676b565b5b6020026020010181905250828061248d9061682a565b9350505b50808061249d9061682a565b915050611e18565b5081935050505090565b600033905060006040518061018001604052808373ffffffffffffffffffffffffffffffffffffffff1681526020018b81526020018a81526020018981526020018881526020018781526020018681526020018581526020018481526020016040518060400160405280600581526020017f627579657200000000000000000000000000000000000000000000000000000081525081526020016000151581526020016000815250905080600560010160008473ffffffffffffffffffffffffffffffffffffffff1673ffffffffffffffffffffffffffffffffffffffff16815260200190815260200160002060008201518160000160006101000a81548173ffffffffffffffffffffffffffffffffffffffff021916908373ffffffffffffffffffffffffffffffffffffffff16021790555060208201518160010190805190602001906125ff929190615551565b50604082015181600201908051906020019061261c929190615551565b506060820151816003019080519060200190612639929190615551565b506080820151816004019080519060200190612656929190615551565b5060a0820151816005019080519060200190612673929190615551565b5060c0820151816006019080519060200190612690929190615551565b5060e08201518160070190805190602001906126ad929190615551565b506101008201518160080190805190602001906126cb929190615551565b506101208201518160090190805190602001906126e9929190615551565b5061014082015181600a0160006101000a81548160ff02191690831515021790555061016082015181600b01559050506001600560030160008473ffffffffffffffffffffffffffffffffffffffff1673ffffffffffffffffffffffffffffffffffffffff16815260200190815260200160002060006101000a81548160ff021916908315150217905550600560000180549050600560020160008473ffffffffffffffffffffffffffffffffffffffff1673ffffffffffffffffffffffffffffffffffffffff168152602001908152602001600020819055506005600001829080600181540180825580915050600190039060005260206000200160009091909190916101000a81548173ffffffffffffffffffffffffffffffffffffffff021916908373ffffffffffffffffffffffffffffffffffffffff16021790555081600580018860405161283c9190616a3f565b908152602001604051809103902060006101000a81548173ffffffffffffffffffffffffffffffffffffffff021916908373ffffffffffffffffffffffffffffffffffffffff1602179055507fc6080d6d7561c36c3e42596419c0f6d4a11ee68eeab3f4f210177929c7801369816040516128b7919061612a565b60405180910390a150505050505050505050565b6128d36154d8565b600560010160003373ffffffffffffffffffffffffffffffffffffffff1673ffffffffffffffffffffffffffffffffffffffff168152602001908152602001600020604051806101800160405290816000820160009054906101000a900473ffffffffffffffffffffffffffffffffffffffff1673ffffffffffffffffffffffffffffffffffffffff1673ffffffffffffffffffffffffffffffffffffffff168152602001600182018054612987906167c9565b80601f01602080910402602001604051908101604052809291908181526020018280546129b3906167c9565b8015612a005780601f106129d557610100808354040283529160200191612a00565b820191906000526020600020905b8154815290600101906020018083116129e357829003601f168201915b50505050508152602001600282018054612a19906167c9565b80601f0160208091040260200160405190810160405280929190818152602001828054612a45906167c9565b8015612a925780601f10612a6757610100808354040283529160200191612a92565b820191906000526020600020905b815481529060010190602001808311612a7557829003601f168201915b50505050508152602001600382018054612aab906167c9565b80601f0160208091040260200160405190810160405280929190818152602001828054612ad7906167c9565b8015612b245780601f10612af957610100808354040283529160200191612b24565b820191906000526020600020905b815481529060010190602001808311612b0757829003601f168201915b50505050508152602001600482018054612b3d906167c9565b80601f0160208091040260200160405190810160405280929190818152602001828054612b69906167c9565b8015612bb65780601f10612b8b57610100808354040283529160200191612bb6565b820191906000526020600020905b815481529060010190602001808311612b9957829003601f168201915b50505050508152602001600582018054612bcf906167c9565b80601f0160208091040260200160405190810160405280929190818152602001828054612bfb906167c9565b8015612c485780601f10612c1d57610100808354040283529160200191612c48565b820191906000526020600020905b815481529060010190602001808311612c2b57829003601f168201915b50505050508152602001600682018054612c61906167c9565b80601f0160208091040260200160405190810160405280929190818152602001828054612c8d906167c9565b8015612cda5780601f10612caf57610100808354040283529160200191612cda565b820191906000526020600020905b815481529060010190602001808311612cbd57829003601f168201915b50505050508152602001600782018054612cf3906167c9565b80601f0160208091040260200160405190810160405280929190818152602001828054612d1f906167c9565b8015612d6c5780601f10612d4157610100808354040283529160200191612d6c565b820191906000526020600020905b815481529060010190602001808311612d4f57829003601f168201915b50505050508152602001600882018054612d85906167c9565b80601f0160208091040260200160405190810160405280929190818152602001828054612db1906167c9565b8015612dfe5780601f10612dd357610100808354040283529160200191612dfe565b820191906000526020600020905b815481529060010190602001808311612de157829003601f168201915b50505050508152602001600982018054612e17906167c9565b80601f0160208091040260200160405190810160405280929190818152602001828054612e43906167c9565b8015612e905780601f10612e6557610100808354040283529160200191612e90565b820191906000526020600020905b815481529060010190602001808311612e7357829003601f168201915b50505050508152602001600a820160009054906101000a900460ff16151515158152602001600b82015481525050905090565b612ecb6155d7565b600260010160003373ffffffffffffffffffffffffffffffffffffffff1673ffffffffffffffffffffffffffffffffffffffff168152602001908152602001600020604051806101000160405290816000820160009054906101000a900473ffffffffffffffffffffffffffffffffffffffff1673ffffffffffffffffffffffffffffffffffffffff1673ffffffffffffffffffffffffffffffffffffffff168152602001600182018054612f7f906167c9565b80601f0160208091040260200160405190810160405280929190818152602001828054612fab906167c9565b8015612ff85780601f10612fcd57610100808354040283529160200191612ff8565b820191906000526020600020905b815481529060010190602001808311612fdb57829003601f168201915b50505050508152602001600282018054613011906167c9565b80601f016020809104026020016040519081016040528092919081815260200182805461303d906167c9565b801561308a5780601f1061305f5761010080835404028352916020019161308a565b820191906000526020600020905b81548152906001019060200180831161306d57829003601f168201915b505050505081526020016003820180546130a3906167c9565b80601f01602080910402602001604051908101604052809291908181526020018280546130cf906167c9565b801561311c5780601f106130f15761010080835404028352916020019161311c565b820191906000526020600020905b8154815290600101906020018083116130ff57829003601f168201915b50505050508152602001600482018054613135906167c9565b80601f0160208091040260200160405190810160405280929190818152602001828054613161906167c9565b80156131ae5780601f10613183576101008083540402835291602001916131ae565b820191906000526020600020905b81548152906001019060200180831161319157829003601f168201915b505050505081526020016005820180546131c7906167c9565b80601f01602080910402602001604051908101604052809291908181526020018280546131f3906167c9565b80156132405780601f1061321557610100808354040283529160200191613240565b820191906000526020600020905b81548152906001019060200180831161322357829003601f168201915b50505050508152602001600682018054613259906167c9565b80601f0160208091040260200160405190810160405280929190818152602001828054613285906167c9565b80156132d25780601f106132a7576101008083540402835291602001916132d2565b820191906000526020600020905b8154815290600101906020018083116132b557829003601f168201915b505050505081526020016007820160009054906101000a900460ff161515151581525050905090565b60008054906101000a900473ffffffffffffffffffffffffffffffffffffffff1673ffffffffffffffffffffffffffffffffffffffff163373ffffffffffffffffffffffffffffffffffffffff1614613389576040517f08c379a0000000000000000000000000000000000000000000000000000000008152600401613380906168e5565b60405180910390fd5b6000600560010160008373ffffffffffffffffffffffffffffffffffffffff1673ffffffffffffffffffffffffffffffffffffffff1681526020019081526020016000209050600181600a0160006101000a81548160ff0219169083151502179055507f1fd367a936cb02134d1fcabf294982ccd371a72d89e3b0d3e788305d3600ddd460405161341990616d20565b60405180910390a15050565b600f818154811061343557600080fd5b9060005260206000209060070201600091509050806000018054613458906167c9565b80601f0160208091040260200160405190810160405280929190818152602001828054613484906167c9565b80156134d15780601f106134a6576101008083540402835291602001916134d1565b820191906000526020600020905b8154815290600101906020018083116134b457829003601f168201915b5050505050908060010180546134e6906167c9565b80601f0160208091040260200160405190810160405280929190818152602001828054613512906167c9565b801561355f5780601f106135345761010080835404028352916020019161355f565b820191906000526020600020905b81548152906001019060200180831161354257829003601f168201915b505050505090806002018054613574906167c9565b80601f01602080910402602001604051908101604052809291908181526020018280546135a0906167c9565b80156135ed5780601f106135c2576101008083540402835291602001916135ed565b820191906000526020600020905b8154815290600101906020018083116135d057829003601f168201915b505050505090806003015490806004018054613608906167c9565b80601f0160208091040260200160405190810160405280929190818152602001828054613634906167c9565b80156136815780601f1061365657610100808354040283529160200191613681565b820191906000526020600020905b81548152906001019060200180831161366457829003601f168201915b5050505050908060050154908060060154905087565b61369f615634565b600b60010160003373ffffffffffffffffffffffffffffffffffffffff1673ffffffffffffffffffffffffffffffffffffffff168152602001908152602001600020604051806101200160405290816000820160009054906101000a900473ffffffffffffffffffffffffffffffffffffffff1673ffffffffffffffffffffffffffffffffffffffff1673ffffffffffffffffffffffffffffffffffffffff168152602001600182018054613753906167c9565b80601f016020809104026020016040519081016040528092919081815260200182805461377f906167c9565b80156137cc5780601f106137a1576101008083540402835291602001916137cc565b820191906000526020600020905b8154815290600101906020018083116137af57829003601f168201915b505050505081526020016002820180546137e5906167c9565b80601f0160208091040260200160405190810160405280929190818152602001828054613811906167c9565b801561385e5780601f106138335761010080835404028352916020019161385e565b820191906000526020600020905b81548152906001019060200180831161384157829003601f168201915b50505050508152602001600382018054613877906167c9565b80601f01602080910402602001604051908101604052809291908181526020018280546138a3906167c9565b80156138f05780601f106138c5576101008083540402835291602001916138f0565b820191906000526020600020905b8154815290600101906020018083116138d357829003601f168201915b50505050508152602001600482018054613909906167c9565b80601f0160208091040260200160405190810160405280929190818152602001828054613935906167c9565b80156139825780601f1061395757610100808354040283529160200191613982565b820191906000526020600020905b81548152906001019060200180831161396557829003601f168201915b5050505050815260200160058201805461399b906167c9565b80601f01602080910402602001604051908101604052809291908181526020018280546139c7906167c9565b8015613a145780601f106139e957610100808354040283529160200191613a14565b820191906000526020600020905b8154815290600101906020018083116139f757829003601f168201915b50505050508152602001600682018054613a2d906167c9565b80601f0160208091040260200160405190810160405280929190818152602001828054613a59906167c9565b8015613aa65780601f10613a7b57610100808354040283529160200191613aa6565b820191906000526020600020905b815481529060010190602001808311613a8957829003601f168201915b50505050508152602001600782018054613abf906167c9565b80601f0160208091040260200160405190810160405280929190818152602001828054613aeb906167c9565b8015613b385780601f10613b0d57610100808354040283529160200191613b38565b820191906000526020600020905b815481529060010190602001808311613b1b57829003601f168201915b505050505081526020016008820160009054906101000a900460ff161515151581525050905090565b60606000805b600b600001805490508110156140a6576000600b6001016000600b6000018481548110613b9757613b9661676b565b5b9060005260206000200160009054906101000a900473ffffffffffffffffffffffffffffffffffffffff1673ffffffffffffffffffffffffffffffffffffffff1673ffffffffffffffffffffffffffffffffffffffff168152602001908152602001600020604051806101200160405290816000820160009054906101000a900473ffffffffffffffffffffffffffffffffffffffff1673ffffffffffffffffffffffffffffffffffffffff1673ffffffffffffffffffffffffffffffffffffffff168152602001600182018054613c6e906167c9565b80601f0160208091040260200160405190810160405280929190818152602001828054613c9a906167c9565b8015613ce75780601f10613cbc57610100808354040283529160200191613ce7565b820191906000526020600020905b815481529060010190602001808311613cca57829003601f168201915b50505050508152602001600282018054613d00906167c9565b80601f0160208091040260200160405190810160405280929190818152602001828054613d2c906167c9565b8015613d795780601f10613d4e57610100808354040283529160200191613d79565b820191906000526020600020905b815481529060010190602001808311613d5c57829003601f168201915b50505050508152602001600382018054613d92906167c9565b80601f0160208091040260200160405190810160405280929190818152602001828054613dbe906167c9565b8015613e0b5780601f10613de057610100808354040283529160200191613e0b565b820191906000526020600020905b815481529060010190602001808311613dee57829003601f168201915b50505050508152602001600482018054613e24906167c9565b80601f0160208091040260200160405190810160405280929190818152602001828054613e50906167c9565b8015613e9d5780601f10613e7257610100808354040283529160200191613e9d565b820191906000526020600020905b815481529060010190602001808311613e8057829003601f168201915b50505050508152602001600582018054613eb6906167c9565b80601f0160208091040260200160405190810160405280929190818152602001828054613ee2906167c9565b8015613f2f5780601f10613f0457610100808354040283529160200191613f2f565b820191906000526020600020905b815481529060010190602001808311613f1257829003601f168201915b50505050508152602001600682018054613f48906167c9565b80601f0160208091040260200160405190810160405280929190818152602001828054613f74906167c9565b8015613fc15780601f10613f9657610100808354040283529160200191613fc1565b820191906000526020600020905b815481529060010190602001808311613fa457829003601f168201915b50505050508152602001600782018054613fda906167c9565b80601f0160208091040260200160405190810160405280929190818152602001828054614006906167c9565b80156140535780601f1061402857610100808354040283529160200191614053565b820191906000526020600020905b81548152906001019060200180831161403657829003601f168201915b505050505081526020016008820160009054906101000a900460ff161515151581525050905080610100015161409257828061408e9061682a565b9350505b50808061409e9061682a565b915050613b67565b5060008167ffffffffffffffff8111156140c3576140c2615bef565b5b6040519080825280602002602001820160405280156140fc57816020015b6140e9615634565b8152602001906001900390816140e15790505b5090506000805b600b60000180549050811015614661576000600b6001016000600b60000184815481106141335761413261676b565b5b9060005260206000200160009054906101000a900473ffffffffffffffffffffffffffffffffffffffff1673ffffffffffffffffffffffffffffffffffffffff1673ffffffffffffffffffffffffffffffffffffffff168152602001908152602001600020604051806101200160405290816000820160009054906101000a900473ffffffffffffffffffffffffffffffffffffffff1673ffffffffffffffffffffffffffffffffffffffff1673ffffffffffffffffffffffffffffffffffffffff16815260200160018201805461420a906167c9565b80601f0160208091040260200160405190810160405280929190818152602001828054614236906167c9565b80156142835780601f1061425857610100808354040283529160200191614283565b820191906000526020600020905b81548152906001019060200180831161426657829003601f168201915b5050505050815260200160028201805461429c906167c9565b80601f01602080910402602001604051908101604052809291908181526020018280546142c8906167c9565b80156143155780601f106142ea57610100808354040283529160200191614315565b820191906000526020600020905b8154815290600101906020018083116142f857829003601f168201915b5050505050815260200160038201805461432e906167c9565b80601f016020809104026020016040519081016040528092919081815260200182805461435a906167c9565b80156143a75780601f1061437c576101008083540402835291602001916143a7565b820191906000526020600020905b81548152906001019060200180831161438a57829003601f168201915b505050505081526020016004820180546143c0906167c9565b80601f01602080910402602001604051908101604052809291908181526020018280546143ec906167c9565b80156144395780601f1061440e57610100808354040283529160200191614439565b820191906000526020600020905b81548152906001019060200180831161441c57829003601f168201915b50505050508152602001600582018054614452906167c9565b80601f016020809104026020016040519081016040528092919081815260200182805461447e906167c9565b80156144cb5780601f106144a0576101008083540402835291602001916144cb565b820191906000526020600020905b8154815290600101906020018083116144ae57829003601f168201915b505050505081526020016006820180546144e4906167c9565b80601f0160208091040260200160405190810160405280929190818152602001828054614510906167c9565b801561455d5780601f106145325761010080835404028352916020019161455d565b820191906000526020600020905b81548152906001019060200180831161454057829003601f168201915b50505050508152602001600782018054614576906167c9565b80601f01602080910402602001604051908101604052809291908181526020018280546145a2906167c9565b80156145ef5780601f106145c4576101008083540402835291602001916145ef565b820191906000526020600020905b8154815290600101906020018083116145d257829003601f168201915b505050505081526020016008820160009054906101000a900460ff161515151581525050905080610100015161464d57808484815181106146335761463261676b565b5b602002602001018190525082806146499061682a565b9350505b5080806146599061682a565b915050614103565b5081935050505090565b60606000805b600b60000180549050811015614bb1576000600b6001016000600b60000184815481106146a1576146a061676b565b5b9060005260206000200160009054906101000a900473ffffffffffffffffffffffffffffffffffffffff1673ffffffffffffffffffffffffffffffffffffffff1673ffffffffffffffffffffffffffffffffffffffff168152602001908152602001600020604051806101200160405290816000820160009054906101000a900473ffffffffffffffffffffffffffffffffffffffff1673ffffffffffffffffffffffffffffffffffffffff1673ffffffffffffffffffffffffffffffffffffffff168152602001600182018054614778906167c9565b80601f01602080910402602001604051908101604052809291908181526020018280546147a4906167c9565b80156147f15780601f106147c6576101008083540402835291602001916147f1565b820191906000526020600020905b8154815290600101906020018083116147d457829003601f168201915b5050505050815260200160028201805461480a906167c9565b80601f0160208091040260200160405190810160405280929190818152602001828054614836906167c9565b80156148835780601f1061485857610100808354040283529160200191614883565b820191906000526020600020905b81548152906001019060200180831161486657829003601f168201915b5050505050815260200160038201805461489c906167c9565b80601f01602080910402602001604051908101604052809291908181526020018280546148c8906167c9565b80156149155780601f106148ea57610100808354040283529160200191614915565b820191906000526020600020905b8154815290600101906020018083116148f857829003601f168201915b5050505050815260200160048201805461492e906167c9565b80601f016020809104026020016040519081016040528092919081815260200182805461495a906167c9565b80156149a75780601f1061497c576101008083540402835291602001916149a7565b820191906000526020600020905b81548152906001019060200180831161498a57829003601f168201915b505050505081526020016005820180546149c0906167c9565b80601f01602080910402602001604051908101604052809291908181526020018280546149ec906167c9565b8015614a395780601f10614a0e57610100808354040283529160200191614a39565b820191906000526020600020905b815481529060010190602001808311614a1c57829003601f168201915b50505050508152602001600682018054614a52906167c9565b80601f0160208091040260200160405190810160405280929190818152602001828054614a7e906167c9565b8015614acb5780601f10614aa057610100808354040283529160200191614acb565b820191906000526020600020905b815481529060010190602001808311614aae57829003601f168201915b50505050508152602001600782018054614ae4906167c9565b80601f0160208091040260200160405190810160405280929190818152602001828054614b10906167c9565b8015614b5d5780601f10614b3257610100808354040283529160200191614b5d565b820191906000526020600020905b815481529060010190602001808311614b4057829003601f168201915b505050505081526020016008820160009054906101000a900460ff161515151581525050905080610100015115614b9d578280614b999061682a565b9350505b508080614ba99061682a565b915050614671565b5060008167ffffffffffffffff811115614bce57614bcd615bef565b5b604051908082528060200260200182016040528015614c0757816020015b614bf4615634565b815260200190600190039081614bec5790505b5090506000805b600b6000018054905081101561516d576000600b6001016000600b6000018481548110614c3e57614c3d61676b565b5b9060005260206000200160009054906101000a900473ffffffffffffffffffffffffffffffffffffffff1673ffffffffffffffffffffffffffffffffffffffff1673ffffffffffffffffffffffffffffffffffffffff168152602001908152602001600020604051806101200160405290816000820160009054906101000a900473ffffffffffffffffffffffffffffffffffffffff1673ffffffffffffffffffffffffffffffffffffffff1673ffffffffffffffffffffffffffffffffffffffff168152602001600182018054614d15906167c9565b80601f0160208091040260200160405190810160405280929190818152602001828054614d41906167c9565b8015614d8e5780601f10614d6357610100808354040283529160200191614d8e565b820191906000526020600020905b815481529060010190602001808311614d7157829003601f168201915b50505050508152602001600282018054614da7906167c9565b80601f0160208091040260200160405190810160405280929190818152602001828054614dd3906167c9565b8015614e205780601f10614df557610100808354040283529160200191614e20565b820191906000526020600020905b815481529060010190602001808311614e0357829003601f168201915b50505050508152602001600382018054614e39906167c9565b80601f0160208091040260200160405190810160405280929190818152602001828054614e65906167c9565b8015614eb25780601f10614e8757610100808354040283529160200191614eb2565b820191906000526020600020905b815481529060010190602001808311614e9557829003601f168201915b50505050508152602001600482018054614ecb906167c9565b80601f0160208091040260200160405190810160405280929190818152602001828054614ef7906167c9565b8015614f445780601f10614f1957610100808354040283529160200191614f44565b820191906000526020600020905b815481529060010190602001808311614f2757829003601f168201915b50505050508152602001600582018054614f5d906167c9565b80601f0160208091040260200160405190810160405280929190818152602001828054614f89906167c9565b8015614fd65780601f10614fab57610100808354040283529160200191614fd6565b820191906000526020600020905b815481529060010190602001808311614fb957829003601f168201915b50505050508152602001600682018054614fef906167c9565b80601f016020809104026020016040519081016040528092919081815260200182805461501b906167c9565b80156150685780601f1061503d57610100808354040283529160200191615068565b820191906000526020600020905b81548152906001019060200180831161504b57829003601f168201915b50505050508152602001600782018054615081906167c9565b80601f01602080910402602001604051908101604052809291908181526020018280546150ad906167c9565b80156150fa5780601f106150cf576101008083540402835291602001916150fa565b820191906000526020600020905b8154815290600101906020018083116150dd57829003601f168201915b505050505081526020016008820160009054906101000a900460ff161515151581525050905080610100015115615159578084848151811061513f5761513e61676b565b5b602002602001018190525082806151559061682a565b9350505b5080806151659061682a565b915050614c0e565b5081935050505090565b600033905060006040518061012001604052808373ffffffffffffffffffffffffffffffffffffffff1681526020018981526020018881526020018781526020018681526020018581526020018481526020016040518060400160405280600681526020017f73656c6c65720000000000000000000000000000000000000000000000000000815250815260200160001515815250905080600b60010160008473ffffffffffffffffffffffffffffffffffffffff1673ffffffffffffffffffffffffffffffffffffffff16815260200190815260200160002060008201518160000160006101000a81548173ffffffffffffffffffffffffffffffffffffffff021916908373ffffffffffffffffffffffffffffffffffffffff16021790555060208201518160010190805190602001906152b4929190615551565b5060408201518160020190805190602001906152d1929190615551565b5060608201518160030190805190602001906152ee929190615551565b50608082015181600401908051906020019061530b929190615551565b5060a0820151816005019080519060200190615328929190615551565b5060c0820151816006019080519060200190615345929190615551565b5060e0820151816007019080519060200190615362929190615551565b506101008201518160080160006101000a81548160ff0219169083151502179055509050506001600b60030160008473ffffffffffffffffffffffffffffffffffffffff1673ffffffffffffffffffffffffffffffffffffffff16815260200190815260200160002060006101000a81548160ff021916908315150217905550600b60000180549050600b60020160008473ffffffffffffffffffffffffffffffffffffffff1673ffffffffffffffffffffffffffffffffffffffff16815260200190815260200160002081905550600b600001829080600181540180825580915050600190039060005260206000200160009091909190916101000a81548173ffffffffffffffffffffffffffffffffffffffff021916908373ffffffffffffffffffffffffffffffffffffffff1602179055507ff42f03b647996473ee13541bb44ecf4b516fd1af531be1bdd570fb84f4d22f2f816040516154c69190616441565b60405180910390a15050505050505050565b604051806101800160405280600073ffffffffffffffffffffffffffffffffffffffff168152602001606081526020016060815260200160608152602001606081526020016060815260200160608152602001606081526020016060815260200160608152602001600015158152602001600081525090565b82805461555d906167c9565b90600052602060002090601f01602090048101928261557f57600085556155c6565b82601f1061559857805160ff19168380011785556155c6565b828001600101855582156155c6579182015b828111156155c55782518255916020019190600101906155aa565b5b5090506155d39190615698565b5090565b604051806101000160405280600073ffffffffffffffffffffffffffffffffffffffff1681526020016060815260200160608152602001606081526020016060815260200160608152602001606081526020016000151581525090565b604051806101200160405280600073ffffffffffffffffffffffffffffffffffffffff168152602001606081526020016060815260200160608152602001606081526020016060815260200160608152602001606081526020016000151581525090565b5b808211156156b1576000816000905550600101615699565b5090565b600081519050919050565b600082825260208201905092915050565b6000819050602082019050919050565b600073ffffffffffffffffffffffffffffffffffffffff82169050919050565b600061570c826156e1565b9050919050565b61571c81615701565b82525050565b600081519050919050565b600082825260208201905092915050565b60005b8381101561575c578082015181840152602081019050615741565b8381111561576b576000848401525b50505050565b6000601f19601f8301169050919050565b600061578d82615722565b615797818561572d565b93506157a781856020860161573e565b6157b081615771565b840191505092915050565b60008115159050919050565b6157d0816157bb565b82525050565b6000819050919050565b6157e9816157d6565b82525050565b6000610180830160008301516158086000860182615713565b50602083015184820360208601526158208282615782565b9150506040830151848203604086015261583a8282615782565b915050606083015184820360608601526158548282615782565b9150506080830151848203608086015261586e8282615782565b91505060a083015184820360a08601526158888282615782565b91505060c083015184820360c08601526158a28282615782565b91505060e083015184820360e08601526158bc8282615782565b9150506101008301518482036101008601526158d88282615782565b9150506101208301518482036101208601526158f48282615782565b91505061014083015161590b6101408601826157c7565b506101608301516159206101608601826157e0565b508091505092915050565b600061593783836157ef565b905092915050565b6000602082019050919050565b6000615957826156b5565b61596181856156c0565b935083602082028501615973856156d1565b8060005b858110156159af5784840389528151615990858261592b565b945061599b8361593f565b925060208a01995050600181019050615977565b50829750879550505050505092915050565b600060208201905081810360008301526159db818461594c565b905092915050565b6000604051905090565b600080fd5b600080fd5b615a0081615701565b8114615a0b57600080fd5b50565b600081359050615a1d816159f7565b92915050565b600060208284031215615a3957615a386159ed565b5b6000615a4784828501615a0e565b91505092915050565b600081519050919050565b600082825260208201905092915050565b6000819050602082019050919050565b600060e0830160008301518482036000860152615a998282615782565b91505060208301518482036020860152615ab38282615782565b91505060408301518482036040860152615acd8282615782565b9150506060830151615ae260608601826157e0565b5060808301518482036080860152615afa8282615782565b91505060a0830151615b0f60a08601826157e0565b5060c0830151615b2260c08601826157e0565b508091505092915050565b6000615b398383615a7c565b905092915050565b6000602082019050919050565b6000615b5982615a50565b615b638185615a5b565b935083602082028501615b7585615a6c565b8060005b85811015615bb15784840389528151615b928582615b2d565b9450615b9d83615b41565b925060208a01995050600181019050615b79565b50829750879550505050505092915050565b60006020820190508181036000830152615bdd8184615b4e565b905092915050565b600080fd5b600080fd5b7f4e487b7100000000000000000000000000000000000000000000000000000000600052604160045260246000fd5b615c2782615771565b810181811067ffffffffffffffff82111715615c4657615c45615bef565b5b80604052505050565b6000615c596159e3565b9050615c658282615c1e565b919050565b600067ffffffffffffffff821115615c8557615c84615bef565b5b615c8e82615771565b9050602081019050919050565b82818337600083830152505050565b6000615cbd615cb884615c6a565b615c4f565b905082815260208101848484011115615cd957615cd8615bea565b5b615ce4848285615c9b565b509392505050565b600082601f830112615d0157615d00615be5565b5b8135615d11848260208601615caa565b91505092915050565b615d23816157d6565b8114615d2e57600080fd5b50565b600081359050615d4081615d1a565b92915050565b600080600080600080600060e0888a031215615d6557615d646159ed565b5b600088013567ffffffffffffffff811115615d8357615d826159f2565b5b615d8f8a828b01615cec565b975050602088013567ffffffffffffffff811115615db057615daf6159f2565b5b615dbc8a828b01615cec565b965050604088013567ffffffffffffffff811115615ddd57615ddc6159f2565b5b615de98a828b01615cec565b9550506060615dfa8a828b01615d31565b945050608088013567ffffffffffffffff811115615e1b57615e1a6159f2565b5b615e278a828b01615cec565b93505060a0615e388a828b01615d31565b92505060c0615e498a828b01615d31565b91505092959891949750929550565b600080600080600080600080610100898b031215615e7957615e786159ed565b5b600089013567ffffffffffffffff811115615e9757615e966159f2565b5b615ea38b828c01615cec565b985050602089013567ffffffffffffffff811115615ec457615ec36159f2565b5b615ed08b828c01615cec565b975050604089013567ffffffffffffffff811115615ef157615ef06159f2565b5b615efd8b828c01615cec565b965050606089013567ffffffffffffffff811115615f1e57615f1d6159f2565b5b615f2a8b828c01615cec565b955050608089013567ffffffffffffffff811115615f4b57615f4a6159f2565b5b615f578b828c01615cec565b94505060a089013567ffffffffffffffff811115615f7857615f776159f2565b5b615f848b828c01615cec565b93505060c089013567ffffffffffffffff811115615fa557615fa46159f2565b5b615fb18b828c01615cec565b92505060e089013567ffffffffffffffff811115615fd257615fd16159f2565b5b615fde8b828c01615cec565b9150509295985092959890939650565b6000610180830160008301516160076000860182615713565b506020830151848203602086015261601f8282615782565b915050604083015184820360408601526160398282615782565b915050606083015184820360608601526160538282615782565b9150506080830151848203608086015261606d8282615782565b91505060a083015184820360a08601526160878282615782565b91505060c083015184820360c08601526160a18282615782565b91505060e083015184820360e08601526160bb8282615782565b9150506101008301518482036101008601526160d78282615782565b9150506101208301518482036101208601526160f38282615782565b91505061014083015161610a6101408601826157c7565b5061016083015161611f6101608601826157e0565b508091505092915050565b600060208201905081810360008301526161448184615fee565b905092915050565b6000610100830160008301516161656000860182615713565b506020830151848203602086015261617d8282615782565b915050604083015184820360408601526161978282615782565b915050606083015184820360608601526161b18282615782565b915050608083015184820360808601526161cb8282615782565b91505060a083015184820360a08601526161e58282615782565b91505060c083015184820360c08601526161ff8282615782565b91505060e083015161621460e08601826157c7565b508091505092915050565b60006020820190508181036000830152616239818461614c565b905092915050565b600060208284031215616257576162566159ed565b5b600061626584828501615d31565b91505092915050565b600082825260208201905092915050565b600061628a82615722565b616294818561626e565b93506162a481856020860161573e565b6162ad81615771565b840191505092915050565b6162c1816157d6565b82525050565b600060e08201905081810360008301526162e1818a61627f565b905081810360208301526162f5818961627f565b90508181036040830152616309818861627f565b905061631860608301876162b8565b818103608083015261632a818661627f565b905061633960a08301856162b8565b61634660c08301846162b8565b98975050505050505050565b60006101208301600083015161636b6000860182615713565b50602083015184820360208601526163838282615782565b9150506040830151848203604086015261639d8282615782565b915050606083015184820360608601526163b78282615782565b915050608083015184820360808601526163d18282615782565b91505060a083015184820360a08601526163eb8282615782565b91505060c083015184820360c08601526164058282615782565b91505060e083015184820360e086015261641f8282615782565b9150506101008301516164366101008601826157c7565b508091505092915050565b6000602082019050818103600083015261645b8184616352565b905092915050565b600081519050919050565b600082825260208201905092915050565b6000819050602082019050919050565b6000610120830160008301516164a86000860182615713565b50602083015184820360208601526164c08282615782565b915050604083015184820360408601526164da8282615782565b915050606083015184820360608601526164f48282615782565b9150506080830151848203608086015261650e8282615782565b91505060a083015184820360a08601526165288282615782565b91505060c083015184820360c08601526165428282615782565b91505060e083015184820360e086015261655c8282615782565b9150506101008301516165736101008601826157c7565b508091505092915050565b600061658a838361648f565b905092915050565b6000602082019050919050565b60006165aa82616463565b6165b4818561646e565b9350836020820285016165c68561647f565b8060005b8581101561660257848403895281516165e3858261657e565b94506165ee83616592565b925060208a019950506001810190506165ca565b50829750879550505050505092915050565b6000602082019050818103600083015261662e818461659f565b905092915050565b60008060008060008060c08789031215616653576166526159ed565b5b600087013567ffffffffffffffff811115616671576166706159f2565b5b61667d89828a01615cec565b965050602087013567ffffffffffffffff81111561669e5761669d6159f2565b5b6166aa89828a01615cec565b955050604087013567ffffffffffffffff8111156166cb576166ca6159f2565b5b6166d789828a01615cec565b945050606087013567ffffffffffffffff8111156166f8576166f76159f2565b5b61670489828a01615cec565b935050608087013567ffffffffffffffff811115616725576167246159f2565b5b61673189828a01615cec565b92505060a087013567ffffffffffffffff811115616752576167516159f2565b5b61675e89828a01615cec565b9150509295509295509295565b7f4e487b7100000000000000000000000000000000000000000000000000000000600052603260045260246000fd5b7f4e487b7100000000000000000000000000000000000000000000000000000000600052602260045260246000fd5b600060028204905060018216806167e157607f821691505b602082108114156167f5576167f461679a565b5b50919050565b7f4e487b7100000000000000000000000000000000000000000000000000000000600052601160045260246000fd5b6000616835826157d6565b91507fffffffffffffffffffffffffffffffffffffffffffffffffffffffffffffffff821415616868576168676167fb565b5b600182019050919050565b7f4f6e6c792061646d696e2063616e20766572696679204f7267616e697a61746960008201527f6f6e000000000000000000000000000000000000000000000000000000000000602082015250565b60006168cf60228361626e565b91506168da82616873565b604082019050919050565b600060208201905081810360008301526168fe816168c2565b9050919050565b7f53656c6c65722075706461746520737563636573730000000000000000000000600082015250565b600061693b60158361626e565b915061694682616905565b602082019050919050565b6000602082019050818103600083015261696a8161692e565b9050919050565b7f4f6e6c7920726567697374657265642073656c6c6572732063616e20706c616360008201527f65206f7264657273000000000000000000000000000000000000000000000000602082015250565b60006169cd60288361626e565b91506169d882616971565b604082019050919050565b600060208201905081810360008301526169fc816169c0565b9050919050565b600081905092915050565b6000616a1982615722565b616a238185616a03565b9350616a3381856020860161573e565b80840191505092915050565b6000616a4b8284616a0e565b915081905092915050565b7f596f75206861766520657863656564656420796f7572206f72646572206c696d60008201527f6974000000000000000000000000000000000000000000000000000000000000602082015250565b6000616ab260228361626e565b9150616abd82616a56565b604082019050919050565b60006020820190508181036000830152616ae181616aa5565b9050919050565b6000616af3826157d6565b9150616afe836157d6565b925082821015616b1157616b106167fb565b5b828203905092915050565b60008190508160005260206000209050919050565b60008154616b3e816167c9565b616b48818661572d565b94506001821660008114616b635760018114616b7557616ba8565b60ff1983168652602086019350616ba8565b616b7e85616b1c565b60005b83811015616ba057815481890152600182019150602081019050616b81565b808801955050505b50505092915050565b60008160001c9050919050565b6000819050919050565b6000616bdb616bd683616bb1565b616bbe565b9050919050565b600060e0830160008084018583036000870152616bff8382616b31565b925050600184018583036020870152616c188382616b31565b925050600284018583036040870152616c318382616b31565b92505060038401549050616c4481616bc8565b616c5160608701826157e0565b50600484018583036080870152616c688382616b31565b92505060058401549050616c7b81616bc8565b616c8860a08701826157e0565b5060068401549050616c9981616bc8565b616ca660c08701826157e0565b50819250505092915050565b60006020820190508181036000830152616ccc8184616be2565b905092915050565b7f4275796572207570646174652073756363657373000000000000000000000000600082015250565b6000616d0a60148361626e565b9150616d1582616cd4565b602082019050919050565b60006020820190508181036000830152616d3981616cfd565b905091905056fea2646970667358221220637292c52479aae0369dfee8c613ae0e32c956ce91bcb157153d6b8281a1af2964736f6c634300080a0033",
  "immutableReferences": {},
  "source": "// SPDX-License-Identifier: GPL-3.0\r\npragma solidity >=0.5.0 <0.9.0;\r\npragma experimental ABIEncoderV2;\r\n\r\ncontract Org {\r\n    address admin;          // Admin Address\r\n    uint256 MaxCount = 5;\r\n\t\r\n    struct Admin {\r\n        address id;\r\n        string name;\r\n        string addr;\r\n        string email;\r\n        string con;\r\n        string typ;\r\n        string role;\r\n        bool verified;\r\n    }\r\n\r\n    struct BuyerFarmer {\r\n        address id;\r\n        string name;\r\n        string aadharno;\r\n        string addr;\r\n        string con;\r\n        string typ;\r\n        string landdetails;\r\n        string fertilizersused;\r\n        string noofcrops;\r\n        string role;\r\n        bool verified;\r\n\tuint256 orderCount; // New field to store the order count\r\n    }\r\n\r\n    struct Seller {\r\n        address id;\r\n        string name;\r\n        string email;\r\n        string con;\r\n        string gstno;\r\n        string addr;\r\n        string typ;\r\n        string role;\r\n        bool verified;\r\n    }\r\n\r\n    struct AdminMap {\r\n        address keys;\r\n        mapping(address => Admin) values;  \r\n        bool inserted;  \r\n    }\r\n\r\n    struct BuyerFarmerMap {\r\n        address[] keys;\r\n        mapping(address => BuyerFarmer) values;  \r\n        mapping(address => uint256) indexOf;    \r\n        mapping(address => bool) inserted;  \r\n\t\tmapping(address => uint256) orderCount; // Mapping order count with address\r\n        mapping(string =>address) fetchcontactaddress; //Fetching address of farmer from contact\r\n    }\r\n\r\n    struct SellerMap {\r\n        address[] keys;\r\n        mapping(address => Seller) values;  \r\n        mapping(address => uint256) indexOf;    \r\n        mapping(address => bool) inserted;  \r\n    }\r\n    \r\n    AdminMap private adminmap;\r\n    BuyerFarmerMap private buyerfarmermap;\r\n    SellerMap private sellermap;\r\n\r\n    constructor(\r\n        string memory name,\r\n        string memory addr,\r\n        string memory email,\r\n        string memory con,\r\n        string memory typ\r\n    ) public {\r\n        admin = msg.sender;\r\n        Admin memory adminval = Admin(\r\n            admin,\r\n            name,\r\n            addr,\r\n            email,\r\n            con,\r\n            typ,\r\n            \"admin\",\r\n            true\r\n        );\r\n        adminmap.values[admin] = adminval;\r\n        adminmap.inserted = true;\r\n    }\r\n\r\n    event RegisterBuyerFarmer(BuyerFarmer _buyerfarmervalue);\r\n\r\n    function registerFarmer(\r\n        string memory name,\r\n        string memory aadharno,\r\n        string memory addr,\r\n        string memory con,\r\n        string memory typ,\r\n        string memory landdetails,\r\n        string memory fertilizersused,\r\n        string memory noofcrops\r\n    ) public {\r\n        address sender = msg.sender;\r\n        BuyerFarmer memory buyerfarmervalue = BuyerFarmer(\r\n            sender,\r\n            name,\r\n            aadharno,\r\n            addr,\r\n            con,\r\n            typ,\r\n            landdetails,\r\n            fertilizersused,\r\n            noofcrops,\r\n            \"buyer\",\r\n            false,\r\n            0 // Initialize order count to 0\r\n        );\r\n        buyerfarmermap.values[sender] = buyerfarmervalue;\r\n        buyerfarmermap.inserted[sender] = true;\r\n        buyerfarmermap.indexOf[sender] = buyerfarmermap.keys.length;\r\n        buyerfarmermap.keys.push(sender);\r\n        buyerfarmermap.fetchcontactaddress[con]=sender;//Fetching address of farmer from contact\r\n        emit RegisterBuyerFarmer(buyerfarmervalue);\r\n    }\r\n\r\n    event RegisterSeller(Seller _sellervalue);\r\n\r\n    function registerSeller(\r\n        string memory name,\r\n        string memory email,\r\n        string memory con,\r\n        string memory gstno,\r\n        string memory addr,\r\n        string memory typ\r\n    ) public {\r\n        address sender = msg.sender;\r\n        Seller memory sellervalue = Seller(\r\n            sender,\r\n            name,\r\n            email,\r\n            con,\r\n            gstno,\r\n            addr,\r\n            typ,\r\n            \"seller\",\r\n            false\r\n        );\r\n        sellermap.values[sender] = sellervalue;\r\n        sellermap.inserted[sender] = true;\r\n        sellermap.indexOf[sender] = sellermap.keys.length;\r\n        sellermap.keys.push(sender);\r\n        emit RegisterSeller(sellervalue);\r\n    }\r\n\t\r\n\tstruct Order {\r\n        string orderId;\r\n        string buyername;\r\n        string contact;\r\n        uint256 order_date;\r\n        //address sellerId;\r\n        //address buyerId;\r\n        string product;\r\n        uint quantity;\r\n        uint price;\r\n        //bool fulfilled;\r\n    }\r\n\r\n    Order[] public orders;\r\n\r\n    event AddOrders(Order _order);\r\n\r\n    function addOrders(\r\n\r\n        string memory orderId,\r\n        string memory buyername,\r\n        string memory contact,\r\n        uint256 order_date,\r\n        //address sellerId;\r\n        //address buyerId;\r\n        string memory product,\r\n        uint quantity,\r\n        uint price\r\n        //bool fulfilled\r\n    ) public {\r\n        require(sellermap.inserted[msg.sender], \"Only registered sellers can place orders\");\r\n        \r\n        require(buyerfarmermap.orderCount[buyerfarmermap.fetchcontactaddress[contact]]<MaxCount,\"You have exceeded your order limit\");\r\n        orders.push(\r\n            Order({\r\n                 \r\n                    orderId:orderId,\r\n                    buyername:buyername,\r\n                    contact:contact,\r\n                    order_date:order_date,\r\n                    product:product,\r\n                    quantity:quantity,\r\n                    price:price\r\n                    //fulfilled:fulfilled\r\n                   })\r\n        );\r\n    \r\n\r\n\r\n        // Update order count for the buyer\r\n        buyerfarmermap.orderCount[buyerfarmermap.fetchcontactaddress[contact]]++;\r\n        emit AddOrders(orders[orders.length - 1]);\r\n       \r\n    }\r\n\r\n    function getOrders() public view returns (Order[] memory) {\r\n        return orders;\r\n    }\r\n\r\n\r\n    function getAdmin() public view returns (Admin memory) {\r\n        return adminmap.values[msg.sender];\r\n    }\r\n\r\n    function getBuyer() public view returns (BuyerFarmer memory) {\r\n        return buyerfarmermap.values[msg.sender];\r\n    }\r\n\r\n    function getSeller() public view returns (Seller memory) {\r\n        return sellermap.values[msg.sender];\r\n    }\r\n\r\n    function getUnverifiedBuyers() public view returns (BuyerFarmer[] memory) {\r\n        uint256 counter = 0;\r\n\r\n        for (uint256 i = 0; i < buyerfarmermap.keys.length; i++) {\r\n            BuyerFarmer memory item = buyerfarmermap.values[buyerfarmermap.keys[i]];\r\n            if (!item.verified) counter++;\r\n        }\r\n\r\n        BuyerFarmer[] memory buyers = new BuyerFarmer[](counter);\r\n        uint256 j = 0;\r\n        for (uint256 i = 0; i < buyerfarmermap.keys.length; i++) {\r\n            BuyerFarmer memory item = buyerfarmermap.values[buyerfarmermap.keys[i]];\r\n            if (!item.verified) {\r\n                buyers[j] = item;\r\n                j++;\r\n            }\r\n        }\r\n        return buyers;\r\n    }\r\n    \r\n    function getUnverifiedSellers() public view returns (Seller[] memory) {\r\n        uint256 counter = 0;\r\n\r\n        for (uint256 i = 0; i < sellermap.keys.length; i++) {\r\n            Seller memory item = sellermap.values[sellermap.keys[i]];\r\n            if (!item.verified) counter++;\r\n        }\r\n\r\n        Seller[] memory sellers = new Seller[](counter);\r\n        uint256 j = 0;\r\n        for (uint256 i = 0; i < sellermap.keys.length; i++) {\r\n            Seller memory item = sellermap.values[sellermap.keys[i]];\r\n            if (!item.verified) {\r\n                sellers[j] = item;\r\n                j++;\r\n            }\r\n        }\r\n        return sellers;\r\n    }\r\n\r\n    event VerifyBuyers(string _message);\r\n\r\n    function verifyBuyers(address _address) public {\r\n        require(msg.sender == admin, \"Only admin can verify Organization\");\r\n        BuyerFarmer storage buyer = buyerfarmermap.values[_address];\r\n        buyer.verified = true;\r\n        emit VerifyBuyers(\"Buyer update success\");\r\n    }\r\n\r\n    function getVerifiedBuyers() public view returns (BuyerFarmer[] memory) {\r\n        uint256 counter = 0;\r\n\r\n        for (uint256 i = 0; i < buyerfarmermap.keys.length; i++) {\r\n            BuyerFarmer memory item = buyerfarmermap.values[buyerfarmermap.keys[i]];\r\n            if (item.verified) counter++;\r\n        }\r\n\r\n        BuyerFarmer[] memory buyers = new BuyerFarmer[](counter); \r\n        uint256 j = 0;\r\n        for (uint256 i = 0; i < buyerfarmermap.keys.length; i++) {\r\n            BuyerFarmer memory item = buyerfarmermap.values[buyerfarmermap.keys[i]];\r\n            if (item.verified) {\r\n                buyers[j] = item;\r\n                j++;\r\n            }\r\n        }\r\n        return buyers;\r\n    }\r\n\r\n    event VerifySellers(string _message);\r\n\r\n    function verifySellers(address _address) public {\r\n        require(msg.sender == admin, \"Only admin can verify Organization\");\r\n        Seller storage seller = sellermap.values[_address];\r\n        seller.verified = true;\r\n        emit VerifySellers(\"Seller update success\");\r\n    }\r\n\r\n    function getVerifiedSellers() public view returns (Seller[] memory) {\r\n        uint256 counter = 0;\r\n\r\n        for (uint256 i = 0; i < sellermap.keys.length; i++) {\r\n            Seller memory item = sellermap.values[sellermap.keys[i]];\r\n            if (item.verified) counter++;\r\n        }\r\n\r\n        Seller[] memory sellers = new Seller[](counter); \r\n        uint256 j = 0;\r\n        for (uint256 i = 0; i < sellermap.keys.length; i++) {\r\n            Seller memory item = sellermap.values[sellermap.keys[i]];\r\n            if (item.verified) {\r\n                sellers[j] = item;\r\n                j++;\r\n            }\r\n        }\r\n        return sellers;\r\n    }\r\n}",
  "sourcePath": "E:/blockchain_final/DBT/contracts/Org.sol",
  "compiler": {
    "name": "solc",
    "version": "0.8.10+commit.fc410830.Emscripten.clang"
  },
  "schemaVersion": "3.3.4",
  "updatedAt": "2024-03-10T12:25:32.840Z",
  "devdoc": {
    "kind": "dev",
    "methods": {},
    "version": 1
  },
  "userdoc": {
    "kind": "user",
    "methods": {},
    "version": 1
  }
}